:08000000803102288731FD2F39
:100C9800F1007108863151260800F0004E010F1E40
:100CA800522E700842019A000800013041019D004F
:100CB80080309E009F019B019C0108006230510119
:100CC8008D008F019101023093009001920108007C
:100CD800083042019F0090309D0024309E0019305A
:100CE8009B009C0108008631E22686318631622607
:100CF800863186315926863186316C260800F30004
:100D08007308F200F20DF20D41011D087206033955
:100D180072069D001D14000041019D149D18922E1D
:100D28001C08F1001B08F000080086317726863180
:100D3800103086318326863171084001AF00700873
:100D4800AE000A30A0008830A1001030863183261A
:100D5800863171084001A3007008A2008731462738
:100D680086319C2E780879040319DD2EFD01FD0AD1
:100D7800F91BC82E0130F835F90D890BBF2E01304B
:100D8800FC007C08FD07BC2E79087B02031DCE2ED3
:100D980078087A02031CD42E7808FA027908FB3BFB
:100DA8000130F936F80C890BD52E0130FD02031DF0
:100DB800C82E7B08F9007A08F8000800400198015D
:100DC8009A01373092002B3094003D307E01CE00DE
:100DD8001F30B800B901CF01BA01D00100308B1B18
:100DE8000130F0008B1355307D018F00AA308F0041
:100DF8000F104B08C0391138CB000F307E01A4000A
:100E08000F30A20055307D018F00AA308F000F14DB
:100E1800701C102F8B1708008B130800F501F601C2
:100E2800700871040319412FF701F70AF11B262FE7
:100E38000130F035F10D890B1D2F0130F4007408D5
:100E4800F7071A2F0130F535F60D890B272F710892
:100E58007302031D312F70087202031C382F7008AB
:100E6800F2027108F33B75140130F136F00C890B6E
:100E7800392F0130F702031D262F7608F100750877
:100E8800F000080022304001A4002408A800400116
:100E98002108A5002008A400A00A0319A10A240813
:100EA8008400250885000008A6002608AD002D0846
:100EB8000319080025302D060319672F2D088631E0
:100EC8004C2687314B2F4001A9012108A500200895
:100ED800A400A00A0319A10A240884002508850093
:100EE8000008AD00003A0319FC2F643A0319802F5B
:100EF8000D3A0319802F4B2F280886008701403FA1
:100F0800AB00413FAC000230A4002408A807AC1F86
:100F1800962F0330A4002408A904AB09AC09AB0A36
:100F28000319AC0AAD01AD0A05302D060319BB2F14
:100F38002D08A400A501A435A50D003024078400C0
:100F48008830253D8500003FA600013FA7002708FF
:100F58002C02031DB12F26082B02031CBB2F0130C6
:100F6800A4002408AD0705302D06031D9C2F290871
:100F780003390319C32F2D3086314C2687314001A0
:100F88002D08A4002408AA00FF304001A40024086A
:100F9800AA072A0A03194B2F0A30F8000030F90073
:100FA8002A08A400A501A435A50D00302407840053
:100FB8008830253D8500003FF000013FF1002C08F6
:100FC800F3002B08F2008731122787317108FB00E4
:100FD8007008FA008631B62687317808303E40011D
:100FE800A6002608AD002D0886314C268731C82F6B
:100FF800080040018631992E013400340A34003447
:1010080064340034E8340334103427340A340D349B
:101018004134443443342034563461346C347534A8
:1010280065342034693473343A3420342034253418
:0410380069340034E3
:020000040001F9
:0A000E00EC3FFF3F9F3FFF3FFF3F25
:00000001FF
